:1000000090060010652700000000000000000000BE
:1000100000000000000000000000000000000000E0
:1000200000B5BDB001F008F9684602F01BF868465B
:1000300002F06AF900203DB000BDC04670B5A024B2
:1000400080262022E4053602A3590A4D1343A3510A
:10005000635905209343635101F014F91022A35909
:1000600005201343A35163599343635101F00AF9E7
:1000700070BDC046FC3F0000F0B54746A024802577
:1000800080B41027E4052D026359124E3B4363519F
:10009000A3590520BB43A35101F0F4F82022904658
:1000A0006359052013436351A3599343A35101F0AE
:1000B000E9F8A35905201F43A75101F0E3F8424690
:1000C000635905209343635101F0DCF804BC90466A
:1000D000F0BDC046FC3F0000F8B5A02480271026E4
:1000E000E4053F02E3590D4D3343E35163590520C5
:1000F000B343635101F0C6F82022E359052093432E
:10010000E35163591E43665101F0BCF80520645960
:1001100001F0B8F801206409A043F8BDFC3F0000DD
:10012000F8B5A02480271025E4053F02E3590A4EC4
:100130002B43E351A3590520AB43A35101F0A2F88F
:100140002022E35905209343E351A3591D43A551B0
:1001500001F098F8F8BDC046FC3F0000F8B54F46E6
:1001600046460823C0B4A0248027994608330D1CB6
:10017000E4053F02984617E02022E3591343E35178
:10018000A3599343A3514146134A0520A3586D0038
:100190000B43A35001F076F801235B429C46E144F7
:1001A0004B46EDB2002B12D04246E3590A4E1343A0
:1001B000E351A35905209343A35101F063F86BB2B7
:1001C000002BD9DA2022E3599343E351DBE70CBC3F
:1001D00090469946F8BDC046FC3F0000F0B50823A4
:1001E0004E46574645469946E0B4A024802708333A
:1001F00000269846E4053F024246E359164D134354
:10020000E351635905209343635101F03BF82022E9
:10021000E359924693434246E35163590520134301
:10022000635101F02FF80520655901F02BF8534672
:100230007600F6B22B4201D01F3B1E4301235B42E6
:100240009C46E1444B46002BD6D1301C1CBC90464A
:100250009946A246F0BDC046FC3F0000F0B54D46B1
:100260005F4656464446F0B485B00293CB089C46A0
:100270009146542362468024012100255343644261
:100280001B182043C4B26400E4B20393B948BA4BCC
:10029000BA4FBB4AE609640049427642E4B21560AF
:1002A0003D60016019601D600660E60964007642E9
:1002B000E4B219601D600660E60964007642E4B2AB
:1002C00019601D600660E60964007642E4B21960B8
:1002D0001D600660E60964007642E4B219601D60A4
:1002E0000660E6096406E40F7642644219601D6008
:1002F0000660196066461D60046040243443E4B221
:10030000E60964007642E4B219601D603960156048
:100310003D600660E60964007642E4B219601D6043
:100320000660E60964007642E4B219601D6006606A
:10033000E60964007642E4B219601D600660E609D1
:1003400064007642E4B219601D600660E60964004C
:100350007642E4B219601D600660E6096406E40FA7
:100360007642644219601D6006601960854E1D600A
:100370000460039C19601D603960345D1160E609FA
:1003800064007642E4B23D600660E60964007642AD
:10039000E4B219601D600660E60964007642E4B2CA
:1003A00019601D600660E60964007642E4B21960D7
:1003B0001D600660E60964007642E4B219601D60C3
:1003C0000660E60964007642E4B219601D600660CA
:1003D000E6096406E40F7642644219601D60066017
:1003E00019604E461D600460039C19601D60651C09
:1003F000644C203EA446B400A619634C6544A4197D
:100400003960914601940026BC4600241A1C0095D0
:100410004BE0009B1B783B4301277F42B8464F4689
:10042000009D01362B7039606746524D3C60DF09F4
:100430005B00DBB2AA46DD095B007F426D42DBB2A6
:100440000760116014600560DD095B006D42DBB27E
:10045000116014600560DD095B006D42DBB2116064
:1004600014600560DD095B006D42DBB21160146051
:100470000560DD095B006D42DBB211601460056050
:10048000DD095B06DB0F5B426D42116014600560A5
:100490001160146003606346116014601960009B72
:1004A000354F01330093052E08D0019B9F5D029BC1
:1004B000002BAED1009B1B78BB43ADE7314A4146D0
:1004C0009446039B2E4A63449B79116000212B4A7A
:1004D00011605146DA0952420A6042463A600022EF
:1004E0005B00DBB23A60DA0952420A6042463A6087
:1004F00000225B00DBB23A60DA0952420A604246EF
:100500003A6000225B00DBB23A60DA0952420A60CC
:1005100042463A6000225B00DBB23A60DA0952429E
:100520000A6042463A6000225B00DBB23A60DA09B8
:1005300052420A6042463A6000225B00DBB23A60F7
:10054000DA0952420A6042463A6000225B06DB0F3B
:100550005B423A600B6043463B60002342463B608F
:10056000064B1A6005B03CBC90469946A246AB4685
:10057000F0BDC04620000150400001500400015071
:100580001000015000000010383A00008022802145
:10059000F0B54746744D0720AB5849020B43012183
:1005A000902680B4AB50714B714F9C6F84430C43C9
:1005B0009C67DC6F84430C43DC679C5884430C438A
:1005C0009C509C5984432143942499511959913E3C
:1005D00081431951A958674B674C0B40AB5080229F
:1005E0001F23002565491202885803438B5000F0F1
:1005F00023FE2560012000F039FE3E60012000F05E
:1006000035FE5F4B012098461D6000F02FFE4346EB
:1006100001201E6000F02AFE5A4B5B4A15603D60C7
:100620001D60266025601D60266025601E602660B6
:1006300025601D60266025601D60266025601D60A8
:10064000266025601D60266025601E60266025608E
:100650003E6015603D601E60266025601E6026605D
:1006600025601D60266025601D60266025601E6077
:10067000266025601D60266025601D60266025605F
:100680001D60266025603E6015603D601D6026602F
:1006900025601D60266025601D60266025601D6048
:1006A000266025601D60266025601E60266025602E
:1006B0001E60266025601D60266025603E60156016
:1006C0003D601D60266025601D60266025601D6000
:1006D000266025601E60266025601D6026602560FE
:1006E0001D60266025601E60266025601E602660F5
:1006F00025603E6015603D601D60266025601D60C0
:10070000266025601E60266025601D6026602560CD
:100710001D60266025601D60266025601D602660C6
:1007200025601D60266025603E6015603D601D608F
:10073000266025601D60266025601D60266025609E
:100740001D60266025601E60266025601E60266094
:1007500025601D60266025601D60266025603E6066
:1007600004BC9046F0BDC0460080044000400440F8
:1007700004000150FFFFFEFF400001500000015047
:1007800008000150200001501000015070B504A86D
:100790000678532907D82F2A05D8081C111C1A1CC3
:1007A000331CFFF75BFD70BDF8B51C1C161C2278CE
:1007B00006AB1F78002A01D02F2E00D9F8BD0D1CE2
:1007C0000134532D04D8281C311C3B1CFFF746FD77
:1007D00022780635002AF3D1F0E7C0460121002334
:1007E000F0B5314A3148324D324E494233602B60C8
:1007F0000160116013600360116013600360116099
:100800001360036011601360036011601360036084
:100810001160136003601160136003601160136066
:10082000296033602B600360116013600160116008
:100830001360036011601360036011601360036054
:100840001160136003601160136003601160136036
:10085000036011601360F933FF339C4600270023C7
:10086000154C2960A4442770013431602B6003606B
:100870001160136003601160136003601160136006
:100880000360116013600360116013600360116006
:1008900013600360116013600360116013602960CE
:1008A0006445E0D1F0BDC046400001502000015039
:1008B000040001501000015000000010F0B5574630
:1008C0004E464546E0B4532900D9C4E02F2A00D94A
:1008D000C1E05426D008464380460720024006382F
:1008E00076189040002B00D0BAE0614B9C469A5D90
:1008F000824363469A5580220020012452421143CC
:10090000CAB25C4B5200D2B218605B4D5B4F9A4644
:10091000D1095B4B520064424942D2B238602C602C
:100920001C6018602960D10952004942D2B21C6093
:1009300018602960D10952004942D2B21C60186087
:100940002960D10952004942D2B21C601860296066
:10095000D10952004942D2B21C6018602960D10905
:100960005206D20F494252421C60186029601C6036
:10097000414618602A6040221143CAB251465200D3
:10098000D2B25200D2B25200D2B25200D2B252000F
:10099000D2B21C6018603C600860D1095200494224
:1009A000D2B2386028601C6018602C601C6018602F
:1009B00028601C60186028601C60186028601C603B
:1009C00018602960D1095206D20F494252421C6078
:1009D000186029601C6018602A60624651461C60DD
:1009E00018603C60925D0C60D10952004942D2B25D
:1009F00038602960D10952004942D2B21C601860A7
:100A00002960D10952004942D2B21C6018602960A5
:100A1000D10952004942D2B21C6018602960D10944
:100A200052004942D2B21C6018602960D1095200BC
:100A30004942D2B21C6018602960D1095206D20F17
:100A4000494252421C60186029601C6018602A608C
:100A50001C6018603C601CBC90469946A246F0BDE4
:100A6000021C034B9C469B5D1A43D2B241E7C04631
:100A7000000000101000015020000150040001503F
:100A800040000150F8B5041C0E1C151C006801291B
:100A900000D18AE0FFF7D2FA4E212068FFF75EFB13
:100AA0002068FFF719FB01212068FFF757FB20683A
:100AB000FFF712FB2068FFF7DFFA2068FFF7BEFAA6
:100AC0004F212068FFF74AFB2068FFF705FB2068ED
:100AD000FFF784FB061C2068FFF722FB2068FFF766
:100AE000CBFA0123AB402068DDB2FFF7A7FA4E2115
:100AF0002068FFF733FB2068FFF7EEFA012120683A
:100B0000FFF72CFB2E432068FFF7E6FAF1B22068CE
:100B1000FFF724FB2068FFF7DFFA2068FFF7ACFA45
:100B20002068FFF78BFA4E212068FFF717FB20683B
:100B3000FFF7D2FA0D212068FFF710FB2068FFF7BE
:100B4000CBFA2068FFF798FA2068FFF777FA4F2171
:100B50002068FFF703FB2068FFF7BEFA2068FFF765
:100B60003DFB061C2068FFF7DBFA2068FFF784FADC
:100B70002068FFF763FA4E212068FFF7EFFA20683C
:100B8000FFF7AAFA0D212068FFF7E8FA354320683D
:100B9000FFF7A2FAE9B22068FFF7E0FA2068FFF752
:100BA0009BFA2068FFF768FAF8BDFFF747FA4E2175
:100BB0002068FFF7D3FA2068FFF78EFA002120683B
:100BC000FFF7CCFA2068FFF787FA2068FFF754FA9E
:100BD0002068FFF733FA4F212068FFF7BFFA20683B
:100BE000FFF77AFA2068FFF7F9FAAE40071C206891
:100BF000FFF796FA2068FFF73FFA2068FFF71EFA22
:100C00004E212068FFF7AAFA2068FFF765FAF6B2CE
:100C100000212068FFF7A2FA37432068FFF75CFA4B
:100C2000F9B22068FFF79AFA2068FFF755FA2068B2
:100C3000FFF722FA2068FFF701FA4E212068FFF73C
:100C40008DFA2068FFF748FA0C212068FFF786FA32
:100C50002068FFF741FA2068FFF70EFA2068FFF7D7
:100C6000EDF94F212068FFF779FA2068FFF734FA91
:100C70002068FFF7B3FA051C2068FFF751FA2068D7
:100C8000FFF7FAF92068FFF7D9F94E212068FFF73E
:100C900065FA2068FFF720FA0C212068FFF75EFA5A
:100CA0002E432068FFF718FAF1B274E7F8B5041C78
:100CB0000E1C151C0068012900D18BE0FFF7BEF95E
:100CC0004E212068FFF74AFA2068FFF705FA012154
:100CD0002068FFF743FA2068FFF7FEF92068FFF766
:100CE000CBF92068FFF7AAF94F212068FFF736FA01
:100CF0002068FFF7F1F92068FFF770FA071C2068F9
:100D0000FFF70EFA2068FFF7B7F90123AB40206820
:100D1000DD43FFF793F94E212068FFF71FFA2068A3
:100D2000FFF7DAF901212068FFF718FA2068FFF7CA
:100D3000D3F9391CEDB229402068FFF70FFA20687B
:100D4000FFF7CAF92068FFF797F92068FFF776F9EF
:100D50004E212068FFF702FA2068FFF7BDF9152140
:100D60002068FFF7FBF92068FFF7B6F92068FFF766
:100D700083F92068FFF762F94F212068FFF7EEF949
:100D80002068FFF7A9F92068FFF728FA061C2068F9
:100D9000FFF7C6F92068FFF76FF92068FFF74EF9F3
:100DA0004E212068FFF7DAF92068FFF795F9152141
:100DB0002068FFF7D3F92068FFF78EF9291C31402E
:100DC0002068FFF7CBF92068FFF786F92068FFF766
:100DD00053F9F8BDFFF732F94E212068FFF7BEF94D
:100DE0002068FFF779F900212068FFF7B7F920683C
:100DF000FFF772F92068FFF73FF92068FFF71EF947
:100E00004F212068FFF7AAF92068FFF765F92068ED
:100E1000FFF7E4F9AE40071C2068FFF781F920686E
:100E2000FFF72AF92068FFF709F94E212068FFF73C
:100E300095F92068FFF750F900212068FFF78EF937
:100E4000F6432068FFF748F9391CF6B231402068B4
:100E5000FFF784F92068FFF73FF92068FFF70CF9E6
:100E60002068FFF7EBF84E212068FFF777F920683C
:100E7000FFF732F914212068FFF770F92068FFF7B7
:100E80002BF92068FFF7F8F82068FFF7D7F84F2113
:100E90002068FFF763F92068FFF71EF92068FFF765
:100EA0009DF9051C2068FFF73BF92068FFF7E4F87F
:100EB0002068FFF7C3F84E212068FFF74FF920683C
:100EC000FFF70AF914212068FFF748F92068FFF7B7
:100ED00003F9311C294073E7F8B5041C0D1C171CDD
:100EE0000068012900D184E0002B45D1FFF7A6F866
:100EF0004E212068FFF732F92068FFF7EDF8132143
:100F00002068FFF72BF92068FFF7E6F82068FFF765
:100F1000B3F82068FFF792F84F212068FFF71EF919
:100F20002068FFF7D9F82068FFF758F9061C2068F9
:100F3000FFF7F6F82068FFF79FF82068FFF77EF8C4
:100F40004E212068FFF70AF92068FFF7C5F8132142
:100F50002068FFF703F92068FFF7BEF80121B940C8
:100F60008E43F1B22068FFF7F9F82068FFF7B4F874
:100F70002068FFF781F8F8BDFFF760F84E21206880
:100F8000FFF7ECF82068FFF7A7F813212068FFF7B8
:100F9000E5F82068FFF7A0F82068FFF76DF82068F3
:100FA000FFF74CF84F212068FFF7D8F82068FFF7CB
:100FB00093F82068FFF712F9051C2068FFF7B0F8D6
:100FC0002068FFF759F82068FFF738F84E212068AD
:100FD000FFF7C4F82068FFF77FF813212068FFF7B8
:100FE000BDF82068FFF778F80121B9402943C9B25C
:100FF000B8E7002B3DD0FFF721F84E212068FFF71E
:10100000ADF82068FFF768F812212068FFF7A6F80E
:101010002068FFF761F82068FFF72EF82068FFF7D7
:101020000DF84F212068FFF799F82068FFF754F872
:101030002068FFF7D3F8061C2068FFF771F82068D6
:10104000FFF71AF82068FEF7F9FF4E212068FFF736
:1010500085F82068FFF740F812212068FFF77EF836
:101060002068FFF739F8291C351CB9400D43E9B257
:1010700078E7FEF7E3FF4E212068FFF76FF820685E
:10108000FFF72AF812212068FFF768F82068FFF7B9
:1010900023F82068FEF7F0FF2068FEF7CFFF4F210E
:1010A0002068FFF75BF82068FFF716F82068FFF765
:1010B00095F8BD40061C2068FFF732F82068FEF75F
:1010C000DBFF2068FEF7BAFF4E212068FFF746F8E5
:1010D0002068FFF701F820681221FFF73FF8206829
:1010E000FEF7FAFFAE433CE7F8B5041C0D1C161CD6
:1010F000006801292AD0FEF7A1FF4E212068FFF7E2
:101100002DF82068FEF7E8FF13212068FFF726F886
:101110002068FEF7E1FF2068FEF7AEFF2068FEF7CB
:101120008DFF4F212068FFF719F82068FEF7D4FFE4
:101130002068FFF753F8051C2068FEF7F1FF2068D0
:10114000FEF79AFF35410120A843F8BDFEF776FF70
:101150004E212068FFF702F82068FEF7BDFF12213C
:101160002068FEF7FBFF2068FEF7B6FF2068FEF759
:1011700083FF2068FEF762FF4F212068FEF7EEFF35
:101180002068FEF7A9FF2068FFF728F8071C374101
:101190002068FEF7C5FFBD432068FEF76DFFE8B28B
:1011A000D3E7C04630B501604260012B0ED0002964
:1011B00009D00E4D0123934080241A1C2402295982
:1011C0000A432A5130BDA025ED05F3E7002909D0D7
:1011D000064D80249340240229591A1C0B1C93436A
:1011E0002B51EFE7A025ED05F3E7C04600000150C5
:1011F00010B5036800290AD0002B13D00C4C012332
:1012000040680C49834062581343635009E0002B47
:101210000BD0074C01224068064982406358934333
:10122000635010BDA024E405E9E7A024E405F1E73C
:1012300000000150FC3F0000802280200649800011
:101240008B5803438B5000220B21044B1A67D96043
:101250009A6001325A6070470080044000400140AB
:10126000014B98687047C04600400140FA21890050
:10127000034A48439368C01893689842FCD8704763
:1012800000400140034A9368C01893689842FCD814
:101290007047C046004001400120024B5B699B093A
:1012A00098437047008000400120024B5B699843DF
:1012B0007047C046008000404022034843691A42FC
:1012C000FCD0014B196070470080004001220449A6
:1012D0004B691A42FCD0024B1868C0B27047C04636
:1012E00000800040802280218020F8B5224B9203AC
:1012F0005A508027214B40025A5807250243A42008
:1013000001265A505A587F013A435A501C4A1458E1
:10131000AC43145014583443145004301458AC43A4
:1013200014501458344314505A58164C3A435A50D7
:101330008322E26015329E50996F134801F038FA0B
:101340009621890101F034FA0023211C636020609A
:1013500060200333E360A56063694B69094A034079
:10136000602BFAD15369DB0705D5131C01211A68DC
:101370005A691142FBD1F8BD00E100E00080044051
:101380000040044000800040B0710B0038B5041CE0
:1013900000680D1CFFF788FF0023002801D0181CEF
:1013A00038BD2068FFF792FF287002E06420FFF745
:1013B00069FF2068FFF778FF0028F7D12068FFF762
:1013C00085FF01236870EAE708B50068FFF764FF4E
:1013D00008BDC04638B580230D1C0978041C19438C
:1013E0000068FFF769FF02E06420FFF74BFF206809
:1013F000FFF752FF0028F7D169782068FFF75CFFFC
:1014000038BDC046002370B50F4D0373437343616D
:10141000041C0160426028680133184208D00B4860
:10142000A060FFF72FFBFFF71BFF2061201C70BDA2
:10143000074806681E4200D10360064B034803605C
:1014400001232B60ECE7C04600020010FC010010F5
:1014500004020010F801001038B5041C80682168EF
:101460006268FFF741FE051E07D0257B002D07D1DE
:10147000012365732373656100E02073281C38BD68
:10148000FFF7EEFE2269636920619B1A064A1B186A
:101490006361934205D9637B002B02D101336373EF
:1014A000ECE70025EAE7C0464FC30000F8B5041C8E
:1014B0001D1C271CFFF7A6FF291C251C18372835E3
:1014C000381C069A00F016FA089A281C079900F0B2
:1014D00011FA00263823381CE654012100F034FAB2
:1014E0003923281CE654002100F02EFA201CF8BDF8
:1014F00038B500253823041CC5540121183000F0EC
:1015000023FA3923201CE5542830002100F01CFA6E
:1015100038BDC046382310B5C35C041C002B0BD06B
:1015200040394B4259413923C9B2C154002909D02D
:101530002830012100F008FA3923E35C0420002B55
:1015400009D010BD2830002100F0FEF93923E35CFA
:101550000420002BF5D13833E05C431E9841013064
:10156000EFE7C0463922825C031C0420002A00D029
:1015700070473832985C431E98410130F8E7C04606
:1015800010B5041CFFF768FF002807D03823E25C81
:10159000002A0BD03922A25C002A00D010BD201CEA
:1015A000E2541830012100F0CFF9F7E7201C013296
:1015B000E2541830002100F0C7F9EFE7F8B5041C39
:1015C0001D1C271CFFF71EFF0026291C2825183785
:1015D000381C069A00F08EF96655381C002100F080
:1015E000B3F96655201CF8BD38B5041CFFF734FF6D
:1015F000051E0AD028220123201CA15C18304B4074
:10160000A35404D1002100F09FF9281C38BD01210A
:1016100000F09AF9F9E7C046F0B5061C0F1C10253A
:1016200083B02724211C30682A1C00230134FFF7D3
:1016300045F9512CF6D10135182DF2D1022F21D0C8
:1016400016D9042F0BD0082F07D10123306800933F
:1016500027211022104BFFF7A7F803B0F0BD01239C
:1016600030680093272110220C4BFFF79DF8F4E718
:10167000012FF2D13068009727211022084BFFF785
:1016800093F8EAE701233068009327211022054BE5
:10169000FFF78AF8E1E7C046303C0000283C000034
:1016A000183C0000203C0000F0B5061C0F1C28254B
:1016B00083B00224211C30682A1C00230134FFF768
:1016C000FDF8502CF6D10135302DF2D101233068D0
:1016D0000093022128223B1CFFF766F803B0F0BDFF
:1016E000F0B54D4644465F465646F0B485B01D1CE5
:1016F0000EAB81468846161C1F78374C002D0BDA3E
:10170000236800974344191C00682D23FFF73EF817
:1017100023686D4206332360281C0A2101F0D8F8A3
:10172000824600281AD123684A461268281C0A21DA
:101730009146984401F0B2F93031CBB20097484657
:101740004146321CFFF722F823680633236005B0B8
:101750003CBC90469946A246AB46F0BD0A2101F03A
:10176000B7F88346002815D123684A4612684344D7
:1017700050460A219346029301F090F93031CBB2E2
:10178000009758460299321CFFF700F82368063389
:101790002360C9E70A2101F09BF8031E05D00097DA
:1017A00048464146321CFFF79BFF4B4622681B68A8
:1017B000424458460A210293039201F06FF93031F6
:1017C000CBB2009702980399321CFEF7DFFF236823
:1017D00006332360C9E7C04610020010F0B5061CAE
:1017E0000F1C182583B02724211C30682A1C0023D5
:1017F0000134FFF763F8392CF6D10135202DF2D1F1
:101800000022064B301C1A60012327210093183256
:101810003B1CFFF765FF03B0F0BDC046100200108F
:10182000F0B5061C0F1C202583B02724211C30682E
:101830002A1C00230134FFF741F8392CF6D1013579
:10184000282DF2D10022064B301C1A6001232721DB
:10185000009320323B1CFFF743FF03B0F0BDC046AE
:1018600010020010F0B501271C4E83B03368051C30
:101870001B4C3B422DD0201C2C60FEF7AFFF0123F8
:101880002868009302210522164BFEF78DFF0224E3
:10189000211C2868082201230134FFF70FF8452C8A
:1018A000F6D1443C28680094022110220E4BFEF72A
:1018B0007BFF28680094022118220C4BFEF774FF6E
:1018C0002868009402212022094BFEF76DFF03B027
:1018D000F0BD201CFEF75AFE3760CCE70C0200106A
:1018E00008020010403C00004C3C0000543C00004A
:1018F0005C3C0000002370B50F4D0373041C0160B5
:1019000042602868013318420BD00C48A060FFF7F2
:10191000CDF9A068216862680023FFF7DDFA201C7A
:1019200070BD074806681E4200D10360054B03489E
:10193000036001232B60E9E700020010FC010010A6
:1019400004020010F8010010021C08B58068117331
:101950000B1C11685268FFF7BFFA08BD70B5041C74
:10196000251C1E1C08350023FFF71CFC311C049AA3
:101970000023281CFFF716FC201C0121FFF738FC70
:10198000281C0121FFF734FC002323610023201CC5
:10199000A36163612362E36170BDC04610B5041C9E
:1019A0000121FFF725FC201C01210830FFF720FC56
:1019B000002323610023A36163612362E36110BDFF
:1019C00010B50A49041C006901F034FC084901F013
:1019D0003FFA01F0A9F82423E35CC0B2002B03D145
:1019E000002801D08033184310BDC0460000C84411
:1019F00000401C45F0B547467F2480B4051C0E1CF2
:101A00000C40402C14D95249006901F013FC514993
:101A100001F01EFA01F088F82423EC5CC0B2002C1F
:101A200003D1002812D08023184304BC9046F0BD97
:101A30002F1C01210837FFF7DBFB381C0121FFF7C2
:101A4000D7FB002398462B61002C01D10020ECE746
:101A5000F3432426DBB2DB09AB55201C01F0BAFEB0
:101A60003C4901F0E7FB3A4901F0F2F93A492861B3
:101A700001F0E0FB01F058F801F0F4FE3749041CD6
:101A800001F06AF801F050F8211CA861344801F017
:101A900003FD01F049F8002368612B62FFF7E0FBCA
:101AA0002C69E8614146201C01F010F880460028AE
:101AB0000BD0201C264901F0BDFB264901F0C8F9D6
:101AC00001F032F8AC5DC0B2A9E7FFF7C9FBEB69E2
:101AD0002A6AE861D31A18182862AC5D6B69012C78
:101AE00013D0984225D3AA6994466344984226D3DA
:101AF000434617492B62286901F09CFB154901F008
:101B0000A7F901F011F8C0B289E798421DD3AA697C
:101B100094466344984215D343460D492B62286985
:101B200001F088FB0B4901F093F900F0FDFFC0B212
:101B30007BE7381C0121FFF75BFB2869BAE7381CFB
:101B40000021F8E7281C0021F5E7281C0121F2E715
:101B50000000C84400401C4500C0944400007A4482
:101B60000060EA4710B5041C0121FFF741FB201C6F
:101B700001210830FFF73CFB0023236110BDC04664
:101B800010B50021041C006900F0A0FF002800D05F
:101B900010BDFFF765FBE369226AE061D31A1818EC
:101BA00024232062E35C012B0AD06369984214D39A
:101BB000A26994466344984215D300232362E7E761
:101BC0006369984215D3A269944663449842F4D25B
:101BD000201C0021FFF70CFBDAE7201C0121083054
:101BE000FFF706FBD4E7201C00210830FFF700FBBD
:101BF000CEE7201C0121FFF7FBFAC9E770B5041CF2
:101C0000251C1E1C1835FFF7FDFB311C281C049AEF
:101C1000FFF770FE281C0021FFF796FE201C70BD08
:101C200038B5041CFFF718FC051E04D0201C012148
:101C30001830FFF789FE281C38BDC04608B50023C0
:101C400000214373FFF780FE08BDC04610394B42A8
:101C50005941C9B210B5041C4173002908D00121B3
:101C6000FFF772FE607B431E98410223181A10BDD5
:101C70000021FFF769FEF5E710394B425941302347
:101C8000C9B210B5041CC15400290AD0103001217A
:101C9000FFF75AFE3023E35C0820002B00D1083008
:101CA00010BD10300021FFF74FFEF3E710394B4213
:101CB00059413123C9B210B5041CC154002909D0BF
:101CC0000121FFF741FE3123E05C431E98410223CE
:101CD000181A10BD0021FFF737FEF4E710B5041CF9
:101CE00000211030FFF730FE201C0021FFF72CFEF2
:101CF00000233222A354013AA354013AA354FC23F3
:101D00009B05A3620023606AE3620021FFF766FD82
:101D100010BDC04610B5041C00211030FFF714FEA2
:101D2000201C0021FFF710FE00233122A354013AAA
:101D3000A3542F3A3233E25410BDC046002232235E
:101D400010B5C254446AC06A00F0EEFEC1B2201C55
:101D5000FFF744FD10BDC046F8B54F464646322356
:101D6000C0B4C35C002B5BD1041CC06A00F0DCFE75
:101D70003023E35CC5B2002B56D0A76A3E49381C1D
:101D800001F08AFBFC218905061C00F0A5FE002855
:101D900061D13A4B9946236A4846D969984601F081
:101DA00049FAFC21071C8905A662301C01F074FB6E
:101DB000334901F03FFA334901F04AF880231B060A
:101DC000E062F918404600F081F83123E35C002B13
:101DD0001DD0A76A2C49381C00F0BEFE2B49061CFA
:101DE00000F08EFE002824D1294B9846FC21A662E3
:101DF0008905301C01F050FB214901F01BFA2149F3
:101E000001F026F84146E062206A00F05FF8E06ADF
:101E100000F08AFEC1B2A94202D0606AFFF7DEFC80
:101E20000CBC90469946F8BD3123E35C002BD0D121
:101E3000F6E7391C154801F02FFB1649061C01F086
:101E4000F9F9154901F0F6F9311C8046381C00F00B
:101E500083FE061CCAE7FC21381C890501F01CFB27
:101E60000C49061C01F0E6F9311C8146381C01F0D2
:101E700013FB061C8FE7C0469A99993D9AF99C433B
:101E80000000C8425555CD413333B33D5555D1417E
:101E9000CD3EA04500D082450000604110394B4244
:101EA00059412023C9B210B5041CC154002909D0DE
:101EB0000121FFF749FD2023E35C0820002B00D11E
:101EC000083010BD0021FFF73FFDF4E770B5041C9A
:101ED000C0690E1C00F028FEA169C5B2301C00F0DC
:101EE0003BFE2369A061061C0849986A01F0A2F92B
:101EF000011C301C00F0ACFFE06100F015FEC1B227
:101F0000A94202D06069FFF78BFC70BD00D082450A
:101F100008B5074B21228361064B1421C3610023BE
:101F20008354013A83544069FFF77AFC08BDC046E8
:101F3000008423470000A04110B50021041CFFF7D6
:101F400003FD00222023E25401320133E254606990
:101F50000021FFF765FC10BD70B5C569174E041C64
:101F6000311C281C00F0CCFD00280FD0FC21281CBF
:101F7000890501F05FF9311C051C00F0ADFD00285A
:101F800003D0E66114250E4E09E0E561281C0D49D9
:101F900001F050F9061C281C00F0C6FDC5B22369EB
:101FA000311C986A01F046F9291CA0616069FFF7AD
:101FB00037FC00222123E25470BDC0460000A0413E
:101FC0000084A34700D08245F8B52123C35C002BD1
:101FD00030D12033C35C041C8769C669002B2AD129
:101FE0003D1C301C1A4900F08BFD002805D0281C30
:101FF000184901F051FA051CA061381C291C00F099
:1020000065FD002816D123691349986A01F012F979
:10201000011C281C00F01CFFE06100F085FDC5B22A
:10202000301C00F081FDC0B2A84203D06069291CB9
:10203000FFF7F6FBF8BD301C084900F04DFD002805
:10204000CED0381C064900F087FD051CA061C8E70A
:102050000000A0410000484300D082453333C8420D
:102060000080BB45F0B557464E4645460923041C43
:10207000E0B484B0009301210822083BFFF76EFC16
:102080000723201C009300210022063B2830FFF785
:10209000B5FD0623201C009300210122053B503092
:1020A000FFF78CFA00270125201C261C0123B836D7
:1020B000002102227C30009701950295FFF7F6F986
:1020C000301C01210522FFF715FC301C1036FFF7EC
:1020D000B5FD0023301C01210522FFF763F837729C
:1020E000301C0021FFF784F8434E33682B4263D045
:1020F000424BD4220125A350414B424F98461B68C6
:102100002B4253D0D8230126E7503F4B3F4D9946F1
:102110001B68334239D0DC23E5503D4B3D4E9A4697
:102120000123994653464A461B6813420DD0E023CB
:10213000DC22201CE6502E61E358A2581A6204B03B
:102140001CBC90469946A246F0BD01210232301CCB
:10215000FFF7D0FB301C042210300121FFF7CAFB2F
:1021600043464A461B68134205D1381CFFF77AFBE9
:1021700043464A461A60301C7762FFF7AFFD0123E1
:1021800052461360DB33E558D1E7281C01210222B7
:10219000FFF7B0FB43461B68334219D0281C6F6120
:1021A000FFF7B6FE01234A461360B4E7381CFFF779
:1021B00059FB43461D60A5E7174F3B682B4214D0DF
:1021C000164B984642460D4B1A600122326090E74A
:1021D000381CFFF747FB4346281C1E606F61FFF762
:1021E00097FE01234A46136095E70C4B181C98464E
:1021F000FFF778F83D60E5E78402001074020010F4
:10220000800200106C0200107802001048020010DA
:102210007C020010140200108802001070020010EE
:1022200070B5041CFFF7BAFB201C00214030FFF7FB
:102230008BFB201C00216830FFF786FB231C002548
:10224000201C78331D707C30FFF752F9201CB83009
:10225000FFF7F4FC201CC83005720021FEF7C8FF10
:10226000E4260223A355EA33E5500C3BE058FFF780
:1022700035FDDC23E058FFF74BFED823A15DE05885
:10228000FFF7CAF9FEF7ECFFE823E05070BDC04647
:1022900010B5041CFFF766FCE023E058FFF73AFD99
:1022A000DC23E058FFF748FE201C2021B830FFF760
:1022B000CDFC201C0023C83003720021FEF798FFDC
:1022C0000822E423E2540C3BE0580821FFF7A4F96C
:1022D00010BDC046E02310B5041CC058FFF72EFD0A
:1022E000DC23E058FFF738FE0422E423E2540C3BE1
:1022F000E0580421FFF790F90022EC23E250FEF7AA
:10230000AFFFE823E05010BDF0B544465F465646A7
:102310004D46F0B487B0041CFFF782FF7C2398463B
:102320004C339A46103B9C46A444634601932823B1
:102330009C46A4446346039350239C46A4446346AE
:102340000293D423E4279946A044A2444B4604A90F
:10235000E058FFF71BF8002851D004AB1B78E55D6F
:102360009B4604AB5978FF2D00D173E15B46022BED
:1023700000D151E10B2B00D13BE10020012B00D11A
:1023800060E1042D00D1BEE0FF2D00D162E15A468C
:1023900004AB1A715871042D00D04DE100239B4607
:1023A000EC26E8254B46E058FFF70EF800281ED033
:1023B000201CFFF7E5FBFEF753FF6259A3599B1A58
:1023C000C74A1B18A35160519342EBD9DC23E05854
:1023D000FFF7FAFDE023E058FFF7BEFCEC230022F4
:1023E000E2504B46E058FEF7EFFF0028E0D1D4233F
:1023F00005A9E058FEF7EEFF5B46002B35D1E35D03
:10240000042B5AD0012B07D0FF2B05D04046FFF7F5
:10241000B7F8E35D042B6ED0013B012B96D90298EF
:10242000FFF7E2F8002891D0E35DFF2B23D10823CA
:10243000D825E3556059FFF715FA6059E15DFFF7BC
:10244000EBF883E70026201CFFF7D4FAE55D002EA9
:102450009AD0EE2204AB5A71EE221A71042D71D07B
:10246000D42305A9E058FEF7B5FFD8239D49E058CD
:10247000FFF71AF9FEE7201CFFF774FBE023E05892
:10248000FFF748FCDC23E058FFF756FD01982021B8
:10249000FFF7DCFB40468021FFF73CF80023524663
:1024A000504613720021FEF7A3FEFF23E355273B9E
:1024B000E3581868FEF792F948E7201CFFF760FB25
:1024C000EC25FEF7CDFEE8226359A1585B1A1B18D4
:1024D0006351A050824A934201D8E35D92E7DC2326
:1024E000E058FFF771FDE023E058FFF735FC0023CB
:1024F0006351E35D86E70398FFF792FB002800D065
:10250000B1E0E35D88E75B460B2B00D9F0E0764A4B
:102510009B00D3589F460026201CFFF751FAE55D2B
:1025200095E70026DC23E358D86900F0FDFAC0B235
:10253000002E00D12BE7EE2204AB5A71EE221A7165
:10254000042D8DD101239B462AE70026102900D1B6
:10255000E3E0202900D1E0E0012900D079E7DC2385
:10256000E258BC3BD35C0820002BE1D10830DFE708
:102570000026E023E358D86A00F0D6FAC0B2D7E7C5
:102580000026102900D1E7E0202900D1E4E001294C
:1025900000D05EE7E023E258B03BD35C0820002B7C
:1025A000C6D11020C4E70026102900D1C6E020299A
:1025B00000D1C3E0012900D04BE7C523E05C031C38
:1025C000581E83410220C01AB2E70026102900D10C
:1025D000A9E0202900D1A6E0012900D039E7E023B5
:1025E000E258AF3BD05C031C581E83410220C01A46
:1025F0009EE710295DD020295BD001294FD0042D02
:1026000000D026E75B46033BDBB2072B70D8374A86
:102610009B00D35801269F46402976D0802974D04C
:102620000129ECD1012D6BD100205A4604AB1A715F
:102630005871042D00D1B1E64B4605A9E058FEF7CC
:10264000C9FEDCE6102921D0202915D00129D6D1D8
:10265000281C96E604AB5D711D714B4605A9E05838
:10266000FEF7B8FECBE60123E355D733E05801214E
:10267000FEF7D2FFE35DCFE60020042D00D083E615
:10268000201CFFF705FEE05D051C04E0022D5AD07A
:10269000082D4ED0281C042D00D075E677E66B1E61
:1026A000012B09D9D023E35C0820002BF3D11020A3
:1026B000F1E76B1E012B01D8002065E610394A4274
:1026C0004A415346D1B219725046FEF791FD534626
:1026D0001B7AE55D0820002BDDD11020DBE7C0462A
:1026E00090D00300B43C0000643C0000943C000027
:1026F000EE2204AB5A71EE221A7101239B464FE67B
:102700004046FEF72FFFE55DC5E76B1E012BD3D9D1
:102710004046FEF7FFFEE55DBDE7DC23E058FFF72E
:10272000BDFBE55D93E6E023E058FFF7BFFAE55D0A
:102730008DE6201CFFF7CEFDE55DABE70198FFF7C6
:1027400085FAE55D83E60423E355D433E05804219C
:10275000FEF762FFE55D9DE7E023E058FFF78CFAA6
:10276000E55D74E608B50D480D4B984207D0021D93
:102770009A1A920801329200002101F017F90948D3
:10278000094B984207D0021D9A1A92080132920012
:10279000064901F0CDF8FDF743FCFEE7000000100C
:1027A0008C0200100000001000000010843D0000AA
:1027B000002243088B4274D303098B425FD3030A80
:1027C0008B4244D3030B8B4228D3030C8B420DD393
:1027D000FF22090212BA030C8B4202D31212090221
:1027E00065D0030B8B4219D300E0090AC30B8B425F
:1027F00001D3CB03C01A5241830B8B4201D38B030D
:10280000C01A5241430B8B4201D34B03C01A5241B1
:10281000030B8B4201D30B03C01A5241C30A8B42F4
:1028200001D3CB02C01A5241830A8B4201D38B02DF
:10283000C01A5241430A8B4201D34B02C01A524183
:10284000030A8B4201D30B02C01A5241CDD2C309F5
:102850008B4201D3CB01C01A524183098B4201D371
:102860008B01C01A524143098B4201D34B01C01A5C
:10287000524103098B4201D30B01C01A5241C308D4
:102880008B4201D3CB00C01A524183088B4201D343
:102890008B00C01A524143088B4201D34B00C01A2F
:1028A0005241411A00D20146524110467047FFE79B
:1028B00001B5002000F0FCF802BDC0460029F7D0A9
:1028C00003B5FFF775FF0EBC4243891A1847C0468F
:1028D00003460B437FD4002243088B4274D3030981
:1028E0008B425FD3030A8B4244D3030B8B4228D322
:1028F000030C8B420DD3FF22090212BA030C8B4248
:1029000002D31212090265D0030B8B4219D300E0E7
:10291000090AC30B8B4201D3CB03C01A5241830B6C
:102920008B4201D38B03C01A5241430B8B4201D31C
:102930004B03C01A5241030B8B4201D30B03C01A45
:102940005241C30A8B4201D3CB02C01A5241830ABF
:102950008B4201D38B02C01A5241430A8B4201D3EE
:102960004B02C01A5241030A8B4201D30B02C01A18
:102970005241CDD2C3098B4201D3CB01C01A52417F
:1029800083098B4201D38B01C01A524143098B4208
:1029900001D34B01C01A524103098B4201D30B01F1
:1029A000C01A5241C3088B4201D3CB00C01A524116
:1029B00083088B4201D38B00C01A524143088B42DB
:1029C00001D34B00C01A5241411A00D20146524174
:1029D000104670475DE0CA0F00D04942031000D393
:1029E0004042534000229C4603098B422DD3030AE8
:1029F0008B4212D3FC22890112BA030A8B420CD3F8
:102A0000890192118B4208D3890192118B4204D320
:102A100089013AD0921100E08909C3098B4201D3A0
:102A2000CB01C01A524183098B4201D38B01C01ADA
:102A3000524143098B4201D34B01C01A5241030951
:102A40008B4201D30B01C01A5241C3088B4201D300
:102A5000CB00C01A524183088B4201D38B00C01AAD
:102A60005241D9D243088B4201D34B00C01A524184
:102A7000411A00D20146634652415B10104601D311
:102A80004042002B00D54942704763465B1000D39B
:102A9000404201B5002000F00BF802BD0029F8D03B
:102AA00003B5FFF715FF0EBC4243891A1847C0460D
:102AB0007047C0468446081C6146FFE71FB500F01A
:102AC00073FB002801D40021C8421FBD10B500F0DF
:102AD000F7FA4042013010BD10B500F065FB002848
:102AE00001DB002010BD012010BDC04610B500F074
:102AF0005BFB002801DD002010BD012010BDC04699
:102B000010B500F007FB002801DC002010BD0120FB
:102B100010BDC04610B500F0FDFA002801DA002013
:102B200010BD012010BDC0469E2110B5C905041C72
:102B3000FFF7F0FF002803D1201C00F02BFE10BD92
:102B40009E21201CC90500F0A7FC00F023FE802375
:102B50001B069C466044F2E7F8B54A004302440075
:102B60004E02C50F240E281C9B09120EC90FB7096F
:102B70008D4240D0A01A002800DC84E0002A1CD13D
:102B8000002F5CD15A0704D00F221A40042A00D02B
:102B900004338022D2041A40281C002A24D0013495
:102BA000FF2C00D17BE09B015B0AE4B25B02E405F1
:102BB0005B0A2343C0071843F8BDFF2CE2D08022F4
:102BC000D204174301261B2808DC391C20223E1C96
:102BD000C140101A8640771EBE410E439B1B5A010E
:102BE00033D4281C5A07CFD1DB08FF2C1ED05B0240
:102BF0005B0AE4B2DAE7A11A002957DD002A3AD0CD
:102C0000FF2CBFD08022D204174301261B2972DD7E
:102C10009B195A01E5D50134FF2C00D187E0012131
:102C20008A4A194013405B080B43ABE7002B36D0B0
:102C30008022D20313435B025B0AFF24B6E701380C
:102C400000283FD1DB1B5A01CBD59B019E09301CCC
:102C500000F050FE05388640844223DC001B1F2410
:102C6000321C431C201ADA408640131C741EA641F5
:102C70000024334386E7002F00D183E70139002980
:102C800050D1DB19C5E7002820D1621CD2B2012A3D
:102C90005EDDDE1B720128D5FE1A0D1CD7E7FF246E
:102CA000002383E7694B241A33406BE7002958D18E
:102CB000621CD1B201293CDDFF2A37D0FB185B082A
:102CC000141C5FE7FF2C00D07CE75BE7002C1ED0D4
:102CD000FF2A23D08024E404404223431B285BDDE9
:102CE0000123FB1A141C0D1CADE7002EAFD10023ED
:102CF0000020002478E73A1CCA40944620223E1C5B
:102D0000511A8E406246771EBE41164380E7002B63
:102D10003ED0C0430028E4D0FF2ADFD13B1CFF2473
:102D20000D1C2FE7FF2C00D06FE72BE7FF240023BB
:102D30005AE7002C5AD1002B7FD0002F00D121E779
:102D4000DB195A0100D44CE7404A0134134019E71B
:102D5000002C15D1002B2FD1002F5DD03B1C0D1C5A
:102D600010E7002C21D1002B53D0C943002904D0F7
:102D7000FF2A4BD01B2957DD0123DB19141C48E720
:102D8000002B22D1002F4AD03B1C0D1CFF24F9E65A
:102D90003B1C141C0D1CF5E61D1C2024C540201AEC
:102DA0008340581E83412B439BE7FF2A2ED080246B
:102DB000E40449422343DDE7002F00D1E2E6DA1BB9
:102DC00050013CD5FB1A0D1CDCE6FF24002F00D17E
:102DD000D8E68022DB08D203134204D0FE08164254
:102DE00001D1331C0D1CDB00FF24CBE6002B0DD0E2
:102DF000FF24002F00D1C5E68022DB08D203134256
:102E0000F1D0FE081642EED1331CECE73B1CFF2448
:102E1000B8E63B1C141CB5E6231C0020E4E6802326
:102E200000209B04FF24DFE61E1C2024CE40611AF4
:102E30008B40591E8B4133439FE73B1CA2E6131E78
:102E400000D0CEE600230020CEE6C046FFFFFFFB09
:102E5000F0B556464D465F464446F0B44302450041
:102E6000C70F83B08A465C0A2E0EB94641D0FF2EAA
:102E700026D080231B042343DC00002398469B4676
:102E80007F3E53465B025D0A53465A00DB0F120E2B
:102E90009A4639D0FF2A33D080231B042B43DD0010
:102EA00000237F3A5146B21A46467940081C0192E7
:102EB0001E430F2E00D976E07E4AB6009659B746DB
:102EC000002C30D108239846063B9B46D9E7802347
:102ED0000021DB03FF245B02E4055B0AC9072343EF
:102EE0000B43181C03B03CBC90469946A246AB4627
:102EF000F0BD002C28D104239846033B9B46C0E735
:102F0000002D1FD1022302E0002D11D10123B21A9E
:102F100050464646784001921E430F2E27D86649F8
:102F2000B60089598F460C239846093B9B46A8E773
:102F3000281C00F0DFFC7622431F52429D40121AEB
:102F40000023AFE70323ADE7201C00F0D3FC431FB1
:102F50009C4076235B421E1A002398469B4690E7CE
:102F60000025D1469B465B464846022B6FD1012186
:102F7000FF2401400023AEE77E23019A5B429B1AA7
:102F80001B2B6DDD01214B46194000240023A2E7D5
:102F90008023DB031C4249D18023DB0323435B02F4
:102FA0005B0A391C96E763016D01AB4237D3894652
:102FB0001A2001215B1B01241E1C49005B00002E0E
:102FC00001DBAB4201D35B1B214301380028F3D165
:102FD000581E83410B431D1C019C7F34002CCBDD0C
:102FE0006B0704D00F232B40042B00D004352B019A
:102FF00004D5019A314B8032141C1D40FE2C07DD94
:103000004B460121FF241940002364E7251CAAE751
:1030100001214A46AB015B0AE4B211405BE7019A29
:103020008946013A01921B200021C4E71D4207D0C6
:1030300023435B025B0A391C4CE700256302ABD5D6
:103040008023DB032B435B025B0A514642E7032BE1
:1030500025D0012BC0D101210024014000233AE7F3
:10306000291CD9402B1C019A9E3293405D1EAB4116
:103070000B435A0704D00F221A40042A00D004330D
:103080005A0105D54B46012101241940002322E7AE
:1030900001214A469B015B0A114000241BE7802363
:1030A00001214A46DB032B435B020A405B0A111CE9
:1030B00010E7C046C43C0000043D0000FFFFFFF7DE
:1030C000430270B542004C005D0AC30F4802120E65
:1030D000460A240EC90FFF2A05D0FF2C08D0012074
:1030E000A2420BD070BD0120002DFBD1FF2CF6D1E8
:1030F0000120002EF6D10120A242F3D1B542F1D138
:103100008B4205D0002AEDD1281C431E9841E9E7E7
:103110000020E7E7F0B543024D024A0044005E0A92
:10312000240EC30F6D0A120EC90FFF2C0DD0FF2AFB
:1031300031D0002C0DD177427741002A23D1002DC8
:1031400021D10020002F0BD107E0002E28D1FF2A2B
:1031500021D0002A05D08B4207D0584201231843C2
:10316000F0BD002DF9D08B42F7D19442F5DC04DBA1
:10317000AE42F2D80020AE42F2D258424341012082
:103180005B421843ECE7002FE5D048424141012063
:1031900049420843E4E7002D02D1002CCBD0DAE706
:1031A00002204042DCE7C0464302F0B542004C003A
:1031B0005E0AC30F4802120E450A240EC90FFF2AE9
:1031C0000FD0FF2C1AD0002A10D177427741002C63
:1031D00029D0002F17D048424141012049420843DD
:1031E0000BE00220002E08D1FF2C07D0002C0AD1C2
:1031F000002D08D1584201231843F0BD0220002DB4
:10320000FBD1002AE1D08B42F4D1A242F2DC04DBF4
:10321000AE42EFD80020AE42EFD2584243410120E7
:103220005B421843E9E7002DD3D10020002FE4D101
:10323000E0E7C046F0B55F4656464D464446F0B41A
:1032400045024600C40F83B00F1C6D0A360EA3461C
:1032500045D0FF2E25D080231B041D4300239A4612
:10326000ED007F3E01937B025B0A98467800FB0FDE
:10327000000E994640D0FF2838D0802342461B04D8
:103280001343DB00984600237F384A46019F3018DD
:103290006240411C1F430F2F69D87D4EBF00F65975
:1032A000B746002D45D108230193063B9A46DAE73D
:1032B00093465346022B2FD15B46012400251C4028
:1032C000FF236D02DB056D0AE4071D432543281C1F
:1032D00003B03CBC90469946A246AB46F0BD002DDB
:1032E0002CD104230193033B9A46BCE743465A4240
:1032F00053410322D31AC8E742460123002AC4D00F
:10330000404600F0F7FA4246431F9A4076235B425C
:10331000181A90460023B8E7032B00D1ADE0012B2B
:1033200000D08CE05B4654461C40E4B200230025EC
:10333000C7E70C230193093B9A4694E7281C00F049
:10334000D9FA7626431F9D4000237642361A019310
:103350009A4688E780250024ED03FF23B1E7454620
:10336000CB469A46A5E7454693469A46A1E743468B
:103370002C041B0C9C46230C444626041C1C360CB7
:103380002F0C7443351C66467D4373437743EB181B
:10339000260C9E19B54203D980235B029C466744E4
:1033A00024043304240C1B199D016C1EA5419B0EA3
:1033B000360C2B43BD19AD011D432B0104D5012350
:1033C00068081D400543081C031C7F33002B2CDDBF
:1033D000690704D00F212940042900D004352901B0
:1033E00003D52C4B1D40031C8033FE2B17DD01241D
:1033F000FF231440002564E78020C003054209D064
:103400004346034206D1454605436D026D0A4C46CC
:10341000FF2356E705436D026D0AFF2351E70124A0
:10342000AD016D0ADBB214404BE77E235B421B1AF1
:103430001B2B07DD012400231440002541E7081C55
:103440005A46C1E79E30291C8540D940681E8541F7
:103450000D436B0704D00F232B40042B00D0043501
:103460006B0104D5012401231440002529E7012420
:10347000AD016D0A1440002323E78023DB031D43C5
:1034800001245B466D0223401C1C6D0AFF2318E7D4
:10349000443D0000FFFFFFF7F8B54A004302440037
:1034A0004D02C00F240E061C9B09120EC90FAD0958
:1034B000FF2A00D175E001277940884250D0A01A38
:1034C000002800DC8FE0002A1ED1002D00D075E01E
:1034D0005A0704D00F221A40042A00D00433802255
:1034E0000120D2041A403040002A32D00134FF2C8F
:1034F00000D184E09B015B0AE4B25B02E4055B0A55
:103500002343C0071843F8BDFF2CE1D08022D2042A
:1035100015431B287ADD01255B1B5A015DD59B01F4
:103520009F09381C00F0E6F905388740844269DCC1
:10353000001B1F243A1C431C201ADA408740131C2E
:103540007C1EA74100243B43C2E7131E45D1002344
:103550000020DB08FF2C28D05B025B0AE4B2CCE73A
:10356000A11A00295BDD002A2ED0FF2CB0D08022CA
:10357000D20415431B2974DC2F1C2022CF40511A82
:103580008D40691E8D413D435B195A0125D501349B
:10359000FF2C74D001217E4A194013405B080B4375
:1035A00096E7002D00D088E785E7002B27D0802202
:1035B000D20313435B025B0AFF249EE70138002815
:1035C000AAD0FF2CA5D183E7002D00D180E70139D7
:1035D0000029D9D0FF2CCDD17AE75A0700D079E75E
:1035E00001203040B5E7002825D1621CD2B2012A63
:1035F00055DD5F1B7A012DD5EF1A0E1C91E7FF24D4
:1036000000237AE7624B241A3B4061E7291C202201
:10361000C140101A8540681E85410D437CE7002992
:1036200046D1621CD1B201292BDDFF2A26D0EB182E
:103630005B08141C4CE7002C15D0FF2A1AD08024FC
:10364000E404404223431B284DDD0123EB1A141CE4
:103650000E1C62E7002F00D063E700230020002447
:1036600077E7012590E7002B39D0C0430028EDD043
:10367000FF2AE8D12B1CFF240E1C29E7FF2400237E
:1036800067E7002C5AD1002B7FD0002D00D11FE717
:103690005B195A01A1D53E4A0134134018E7002CAA
:1036A00015D1002B2FD1002D5ED02B1C0E1C0FE747
:1036B000002C21D1002B54D0C943002904D0FF2A6B
:1036C0004CD01B2958DD01235B19141C5DE7002B2E
:1036D00023D1002D4BD02B1C0E1CFF24F8E62B1CF5
:1036E000141C0E1CF4E61E1C2024C640201A834025
:1036F000581E83413343A9E7FF2A2FD08024E404D6
:1037000049422343DDE7002D00D1E1E65A1B500179
:1037100000D41AE7EB1A0E1CDAE6FF24002D00D1C4
:10372000D6E68022DB08D203134204D0ED0815420E
:1037300001D12B1C0E1CDB00FF24C9E6002B0DD091
:10374000FF24002D00D1C3E68022DB08D203134200
:10375000F1D0ED081542EED12B1CECE72B1CFF2419
:10376000B6E62B1C141CB3E6231C0020F1E68023D4
:1037700000209B04FF24ECE61F1C2024CF40611A8C
:103780008B40591E8B413B439EE72B1CA0E6C04655
:10379000FFFFFFFB4202510A4200C30F120E00203E
:1037A0007E2A0DDD9D2A0CDC802000040143952A31
:1037B0000ADC9620821AD1400A1C58424240D01896
:1037C0007047034A9818FBE7963A91400A1CF4E7C1
:1037D000FFFFFF7F70B5041E39D0C50F00D04442F3
:1037E000201C00F087F89E23261C1B1A962B07DC52
:1037F000082801DD083884406402640AD8B21EE05B
:10380000992B0ADD0522211C121AD1400A1C011C29
:103810001B318E40711E8E411643052801DD421F6B
:1038200096400F4C3440720704D00F221640042EED
:1038300000D0043462010ED4A401640AD8B2640238
:10384000C005640AED0704432C43201C70BD00250D
:1038500000200024F3E7024B1C409F231B1AEBE7D8
:10386000FFFFFFFB10B5041E35D000F043F89E218A
:10387000091A962909DC082830DD021C231C083AA5
:1038800093405B025B0AC8B220E099290CDD052257
:10389000231C121AD3401A1C031C1B339C40231CEC
:1038A0005C1EA34113431C1C052801DD431F9C40E3
:1038B0000F4B2340620704D00F221440042C00D089
:1038C00004335A010ED49B015B0AC8B25B025B0A47
:1038D000C005184310BD00200023F7E763025B0A10
:1038E000C8B2F3E79F21024A091A1340EBE7C0462A
:1038F000FFFFFFFB1C2101231B04984201D3000C96
:1039000010391B0A984201D3000A08391B09984252
:1039100001D30009043902A2105C40187047C04668
:103920000403020201010101000000000000000088
:1039300070B50F2A32D9041C0C430B1CA40731D1DB
:10394000151C041C103D2D0901352D0149191E6857
:1039500026605E6866609E68A660DE681033E6607A
:1039600010349942F3D10F2345191340032B1BD96F
:103970001C1F0023A4080134A400CE58EE500433C9
:10398000A342FAD1ED18C91803231A4005D0002329
:10399000CC5CEC5401339342FAD170BD051C002A73
:1039A000F5D1FAE7051CF2E71A1CF8E770B58307B2
:1039B0003FD0541E002A3BD0CEB2031C032503E0A7
:1039C000621E002C34D0141C01335A1E16702B4278
:1039D000F6D1032C24D9FF250D402A0215432A04D1
:1039E00015430F2C11D9261C103E3609013636011D
:1039F0001A1C9B19156055609560D5601032934272
:103A0000F8D10F221440032C0AD9261FB60801361C
:103A1000B6001A1C9B1920C29342FCD10322144009
:103A2000002C05D0C9B21C1919700133A342FBD177
:103A300070BD141C031CCCE7000000000000005FF8
:103A400000000007000700147F147F14242A7F2A37
:103A50001223130864623649552250000503000002
:103A6000001C2241000041221C0014083E081408DA
:103A7000083E0808005030000008080808080060E8
:103A800060000020100804023E5149453E00427F7C
:103A9000400042615149462141454B311814127F83
:103AA0001027454545393C4A49493001710905030C
:103AB0003649494936064949291E00363600000074
:103AC0005636000008142241001414141414004146
:103AD0002214080201510906324979413E7E111132
:103AE000117E7F494949363E414141227F41412271
:103AF0001C7F494949417F090909013E4149497AE9
:103B00007F0808087F00417F41002040413F017F3E
:103B1000081422417F404040407F020C027F7F0416
:103B200008107F3E4141413E7F090909063E41514F
:103B3000215E7F09192946464949493101017F0122
:103B4000013F4040403F1F2040201F3F4038403F42
:103B5000631408146307087008076151494543005E
:103B60007F41410002040810200041417F0004020F
:103B7000010204404040404000010204002054542F
:103B800054787F48444438384444442038444448B6
:103B90007F3854545418087E0901020C5252523E88
:103BA0007F0804047800447D40002040443D007FAD
:103BB0001028440000417F40007C041804787C08F1
:103BC00004047838444444387C1414140808141449
:103BD000187C7C080404084854545420043F444092
:103BE000203C4040207C1C2040201C3C4030403C7D
:103BF00044281028440C5050503C4464544C440019
:103C00000836410000007F0000004136080010081F
:103C1000081008784641467848414C544544000015
:103C200049444C450000000052554E4E494E470055
:103C300053544F50504544005245513A307800009B
:103C4000537769726C20543230313500537461748B
:103C5000653A00004C6576656C3A000054656D70FD
:103C60003A000000F02600008E2300008E230000A2
:103C7000CA250000A6250000802500007025000050
:103C80004A250000222500001625000044240000DB
:103C90008E230000CC250000A8250000822500000E
:103CA000722500004C250000242500001825000086
:103CB000462400003E3E3E204552524F52203C3C9E
:103CC0003C000000A62F00006E2F00008A2F00008D
:103CD000622F00008A2F0000CE2E00008A2F0000E5
:103CE000622F00006E2F00006E2F0000CE2E00000D
:103CF000622F00000C3000000C3000000C3000007F
:103D0000902F00006E2F00006E2F00005630000034
:103D1000602F000056300000CE2E0000563000000C
:103D2000602F00006E2F00006E2F0000CE2E0000CE
:103D3000602F00000C3000000C3000000C30000040
:103D40003A3000006E330000663300006633000036
:103D50005E330000B0320000B03200005433000087
:103D60005E330000B032000054330000B032000077
:103D70005E330000B2320000B2320000B232000006
:043D8000F833000014
:04000003000027656D
:00000001FF
